{
  "contractName": "Crowdsale",
  "abi": [
    {
      "constant": false,
      "inputs": [],
      "name": "withdrawRefund",
      "outputs": [
        {
          "name": "",
          "type": "bool"
        }
      ],
      "payable": false,
      "type": "function"
    },
    {
      "constant": true,
      "inputs": [],
      "name": "weiToToken",
      "outputs": [
        {
          "name": "",
          "type": "uint256"
        }
      ],
      "payable": false,
      "type": "function"
    },
    {
      "constant": true,
      "inputs": [],
      "name": "weiRaised",
      "outputs": [
        {
          "name": "",
          "type": "uint256"
        }
      ],
      "payable": false,
      "type": "function"
    },
    {
      "constant": false,
      "inputs": [
        {
          "name": "_tokens",
          "type": "uint256"
        }
      ],
      "name": "burn",
      "outputs": [],
      "payable": false,
      "type": "function"
    },
    {
      "constant": true,
      "inputs": [],
      "name": "tokenSold",
      "outputs": [
        {
          "name": "",
          "type": "uint256"
        }
      ],
      "payable": false,
      "type": "function"
    },
    {
      "constant": false,
      "inputs": [],
      "name": "refund",
      "outputs": [],
      "payable": false,
      "type": "function"
    },
    {
      "constant": true,
      "inputs": [],
      "name": "preSaleEnd",
      "outputs": [
        {
          "name": "",
          "type": "uint256"
        }
      ],
      "payable": false,
      "type": "function"
    },
    {
      "constant": true,
      "inputs": [],
      "name": "endAt",
      "outputs": [
        {
          "name": "",
          "type": "uint256"
        }
      ],
      "payable": false,
      "type": "function"
    },
    {
      "constant": true,
      "inputs": [],
      "name": "owner",
      "outputs": [
        {
          "name": "",
          "type": "address"
        }
      ],
      "payable": false,
      "type": "function"
    },
    {
      "constant": false,
      "inputs": [
        {
          "name": "_tokens",
          "type": "uint256"
        }
      ],
      "name": "mint",
      "outputs": [],
      "payable": false,
      "type": "function"
    },
    {
      "constant": false,
      "inputs": [],
      "name": "buy",
      "outputs": [
        {
          "name": "",
          "type": "bool"
        }
      ],
      "payable": true,
      "type": "function"
    },
    {
      "constant": true,
      "inputs": [],
      "name": "startAt",
      "outputs": [
        {
          "name": "",
          "type": "uint256"
        }
      ],
      "payable": false,
      "type": "function"
    },
    {
      "constant": true,
      "inputs": [],
      "name": "preSaleRate",
      "outputs": [
        {
          "name": "",
          "type": "uint256"
        }
      ],
      "payable": false,
      "type": "function"
    },
    {
      "constant": true,
      "inputs": [],
      "name": "queue",
      "outputs": [
        {
          "name": "",
          "type": "address"
        }
      ],
      "payable": false,
      "type": "function"
    },
    {
      "constant": true,
      "inputs": [],
      "name": "token",
      "outputs": [
        {
          "name": "",
          "type": "address"
        }
      ],
      "payable": false,
      "type": "function"
    },
    {
      "inputs": [
        {
          "name": "duration",
          "type": "uint256"
        },
        {
          "name": "preSaleduration",
          "type": "uint256"
        },
        {
          "name": "_amountToken",
          "type": "uint256"
        },
        {
          "name": "_weiToToken",
          "type": "uint256"
        },
        {
          "name": "_preSaleRate",
          "type": "uint256"
        },
        {
          "name": "_queueTime",
          "type": "uint256"
        },
        {
          "name": "_whitelist",
          "type": "address[5]"
        },
        {
          "name": "_blacklist",
          "type": "address[5]"
        }
      ],
      "payable": false,
      "type": "constructor"
    },
    {
      "anonymous": false,
      "inputs": [
        {
          "indexed": false,
          "name": "buyer",
          "type": "address"
        },
        {
          "indexed": false,
          "name": "amount",
          "type": "uint256"
        }
      ],
      "name": "Refund",
      "type": "event"
    },
    {
      "anonymous": false,
      "inputs": [
        {
          "indexed": false,
          "name": "buyer",
          "type": "address"
        },
        {
          "indexed": false,
          "name": "amount",
          "type": "uint256"
        }
      ],
      "name": "Purchase",
      "type": "event"
    }
  ],
  "bytecode": "0x60606040526000600755341561001457600080fd5b604051610200806118cb8339810160405280805191906020018051919060200180519190602001805191906020018051919060200180519150602081019060c0015b600080876100626101cf565b908152602001604051809103906000f080151561007e57600080fd5b60008054600160a060020a031916600160a060020a0392909216919091179055846100a76101df565b908152602001604051809103906000f08015156100c357600080fd5b60018054600160a060020a0319908116600160a060020a0393841617909155600280549091163390921691909117905560006006819055426003819055620151808c810282016004558b02016005556009879055600888905591505b600582101561016a576001600b600086815b6020020151600160a060020a031681526020810191909152604001600020805460ff19169115159190911790555b60019091019061011f565b5060005b60058110156101bf576001600c600085846005811061018957fe5b6020020151600160a060020a031681526020810191909152604001600020805460ff19169115159190911790555b60010161016e565b5b505050505050505050506101ef565b60405161077780610b8183390190565b6040516105d3806112f883390190565b610983806101fe6000396000f300606060405236156100bf5763ffffffff60e060020a600035041663110f887481146100c45780632ac097e9146100eb5780634042b66f1461011057806342966c6814610135578063519ee19e1461014d578063590e1ae3146101725780636bc64e0f146101875780637cc3ae8c146101ac5780638da5cb5b146101d1578063a0712d6814610200578063a6f2ae3a14610218578063c744656514610234578063d833dbe914610259578063e10d29ee1461027e578063fc0c546a146102ad575b600080fd5b34156100cf57600080fd5b6100d76102dc565b604051901515815260200160405180910390f35b34156100f657600080fd5b6100fe610379565b60405190815260200160405180910390f35b341561011b57600080fd5b6100fe61037f565b60405190815260200160405180910390f35b341561014057600080fd5b61014b600435610385565b005b341561015857600080fd5b6100fe610401565b60405190815260200160405180910390f35b341561017d57600080fd5b61014b610407565b005b341561019257600080fd5b6100fe6105eb565b60405190815260200160405180910390f35b34156101b757600080fd5b6100fe6105f1565b60405190815260200160405180910390f35b34156101dc57600080fd5b6101e46105f7565b604051600160a060020a03909116815260200160405180910390f35b341561020b57600080fd5b61014b600435610606565b005b6100d7610682565b604051901515815260200160405180910390f35b341561023f57600080fd5b6100fe6108cb565b60405190815260200160405180910390f35b341561026457600080fd5b6100fe6108d1565b60405190815260200160405180910390f35b341561028957600080fd5b6101e46108d7565b604051600160a060020a03909116815260200160405180910390f35b34156102b857600080fd5b6101e46108e6565b604051600160a060020a03909116815260200160405180910390f35b60008060035442101580156102f357506004544211155b15156102fe57600080fd5b600160a060020a0333166000908152600a602052604090205415156103265760009150610374565b50600160a060020a0333166000818152600a6020526040808220805492905590919082156108fc0290839051600060405180830381858888f19350505050151561036f57600080fd5b600191505b5b5090565b60085481565b60075481565b60025433600160a060020a039081169116146103a057600080fd5b600054600160a060020a0316637b47ec1a8260405160e060020a63ffffffff84160281526004810191909152602401600060405180830381600087803b15156103e857600080fd5b6102c65a03f115156103f957600080fd5b5050505b5b50565b60065481565b600080600354421015801561041e57506004544211155b151561042957600080fd5b60008054600160a060020a0316906370a082319033906040516020015260405160e060020a63ffffffff8416028152600160a060020a039091166004820152602401602060405180830381600087803b151561048457600080fd5b6102c65a03f1151561049557600080fd5b505050604051805160008054919450600160a060020a039091169150632b2c91b990339085906040516020015260405160e060020a63ffffffff8516028152600160a060020a0390921660048301526024820152604401602060405180830381600087803b151561050557600080fd5b6102c65a03f1151561051657600080fd5b5050506040518051505060008054600160a060020a0316906323b872dd903390309086906040516020015260405160e060020a63ffffffff8616028152600160a060020a0393841660048201529190921660248201526044810191909152606401602060405180830381600087803b151561059057600080fd5b6102c65a03f115156105a157600080fd5b505050604051805150506008546105bf90839063ffffffff6108f516565b600160a060020a0333166000908152600a6020526040902081905560068054849003905590505b5b5050565b60055481565b60045481565b600254600160a060020a031681565b60025433600160a060020a0390811691161461062157600080fd5b600054600160a060020a03166340753a768260405160e060020a63ffffffff84160281526004810191909152602401600060405180830381600087803b15156103e857600080fd5b6102c65a03f115156103f957600080fd5b5050505b5b50565b6000806000600354421015801561069b57506004544211155b15156106a657600080fd5b600154600160a060020a033381169116631e2231436000604051602001526040518163ffffffff1660e060020a028152600401602060405180830381600087803b15156106f257600080fd5b6102c65a03f1151561070357600080fd5b50505060405180519050600160a060020a031614801561073c5750600160a060020a0333166000908152600c602052604090205460ff16155b156108c057600154600160a060020a031663957908d16040518163ffffffff1660e060020a028152600401600060405180830381600087803b151561078057600080fd5b6102c65a03f1151561079157600080fd5b50506008546107a89150349063ffffffff61092416565b91506107cf6107c2600854846108f590919063ffffffff16565b349063ffffffff61094016565b600160a060020a0333166000908152600a60205260409020819055600554909150421080156108165750600160a060020a0333166000908152600b602052604090205460ff165b156108325760095461082f90839063ffffffff6108f516565b91505b60008054600160a060020a03169063a9059cbb90339085906040516020015260405160e060020a63ffffffff8516028152600160a060020a0390921660048301526024820152604401602060405180830381600087803b151561089457600080fd5b6102c65a03f115156108a557600080fd5b505050604051805150506006805483019055600192506108c5565b600092505b5b505090565b60035481565b60095481565b600154600160a060020a031681565b600054600160a060020a031681565b6000828202831580610911575082848281151561090e57fe5b04145b151561091957fe5b8091505b5092915050565b600080828481151561093257fe5b0490508091505b5092915050565b60008282111561094c57fe5b508082035b929150505600a165627a7a723058209263f455cb820e59cb31591aa11425410eae824c316391c201512f1992803ffe00296060604052341561000f57600080fd5b604051602080610777833981016040528080519150505b60018054600160a060020a03191633600160a060020a03908116919091179182905516600090815260036020526040902081905560028190555b505b610706806100716000396000f300606060405236156100965763ffffffff7c0100000000000000000000000000000000000000000000000000000000600035041663095ea7b3811461009b57806318160ddd146100d157806323b872dd146100f65780632b2c91b91461013257806340753a761461016857806370a08231146101805780637b47ec1a146101b1578063a9059cbb146101c9578063dd62ed3e146101ff575b600080fd5b34156100a657600080fd5b6100bd600160a060020a0360043516602435610236565b604051901515815260200160405180910390f35b34156100dc57600080fd5b6100e46102a3565b60405190815260200160405180910390f35b341561010157600080fd5b6100bd600160a060020a03600435811690602435166044356102a9565b604051901515815260200160405180910390f35b341561013d57600080fd5b6100bd600160a060020a03600435166024356103f4565b604051901515815260200160405180910390f35b341561017357600080fd5b61017e60043561047e565b005b341561018b57600080fd5b6100e4600160a060020a03600435166104e8565b60405190815260200160405180910390f35b34156101bc57600080fd5b61017e600435610507565b005b34156101d457600080fd5b6100bd600160a060020a0360043516602435610593565b604051901515815260200160405180910390f35b341561020a57600080fd5b6100e4600160a060020a036004358116906024351661067c565b60405190815260200160405180910390f35b600160a060020a03338116600081815260046020908152604080832094871680845294909152808220859055909291907f8c5be1e5ebec7d5bd14f71427d1e84f3dd0314c0f7b2291e5b200ac8c7c3b9259085905190815260200160405180910390a35060015b92915050565b60025481565b600160a060020a038084166000818152600460209081526040808320339095168352938152838220549282526003905291822054839010806102ea57508281105b156102f857600091506103ec565b600160a060020a038516600090815260036020526040902054610321908463ffffffff6106a916565b600160a060020a03861660009081526003602052604090205561034a818463ffffffff6106a916565b600160a060020a0380871660009081526004602090815260408083203385168452825280832094909455918716815260039091522054610390908463ffffffff6106c016565b600160a060020a03808616600081815260036020526040908190209390935591908716907fddf252ad1be2c89b69c2b068fc378daa952ba7f163c4a11628f55a4df523b3ef9086905190815260200160405180910390a3600191505b509392505050565b60015460009033600160a060020a0390811691161461041257600080fd5b600160a060020a0380841660008181526004602090815260408083203390951680845294909152908190208590557f8c5be1e5ebec7d5bd14f71427d1e84f3dd0314c0f7b2291e5b200ac8c7c3b9259085905190815260200160405180910390a35060015b5b92915050565b60015433600160a060020a0390811691161461049957600080fd5b6002805482019055600160a060020a0333166000908152600360205260409020546104ca908263ffffffff6106c016565b600160a060020a0333166000908152600360205260409020555b5b50565b600160a060020a0381166000908152600360205260409020545b919050565b60015433600160a060020a0390811691161461052257600080fd5b600160a060020a0333166000908152600360205260409020548190106104e457600280548290039055600160a060020a0333166000908152600360205260409020546104ca908263ffffffff6106a916565b600160a060020a0333166000908152600360205260409020555b5b5b50565b600160a060020a033316600090815260036020526040812054829010156105bc5750600061029d565b600160a060020a0333166000908152600360205260409020546105e5908363ffffffff6106a916565b600160a060020a03338116600090815260036020526040808220939093559085168152205461061a908363ffffffff6106c016565b600160a060020a0380851660008181526003602052604090819020939093559133909116907fddf252ad1be2c89b69c2b068fc378daa952ba7f163c4a11628f55a4df523b3ef9085905190815260200160405180910390a35060015b92915050565b600160a060020a038083166000908152600460209081526040808320938516835292905220545b92915050565b6000828211156106b557fe5b508082035b92915050565b6000828201838110156106cf57fe5b8091505b50929150505600a165627a7a72305820760adaaf1f161f1a9718e171bf2c833690a3fb578545f34487fa35d7d37dc0a900296060604052341561000f57600080fd5b6040516020806105d3833981016040528080519150505b42600155600281905560008054600160a060020a03191633600160a060020a031617905560056040518059106100595750595b908082528060200260200182016040525b50600490805161007e929160200190610090565b506003805460ff191690555b50610123565b8280548282559060005260206000209081019282156100e7579160200282015b828111156100e75782518254600160a060020a031916600160a060020a0391909116178255602092909201916001909101906100b0565b5b506100f49291506100f8565b5090565b61012091905b808211156100f4578054600160a060020a03191681556001016100fe565b5090565b90565b6104a1806101326000396000f3006060604052361561008b5763ffffffff7c01000000000000000000000000000000000000000000000000000000006000350416631e22314381146100905780633e3c9eae146100bf5780638f807f6b146100e8578063949d225d14610109578063957908d114610132578063ad7d59fc14610147578063e0c6190d14610170578063f2a75fe414610185575b600080fd5b341561009b57600080fd5b6100a36101ac565b604051600160a060020a03909116815260200160405180910390f35b34156100ca57600080fd5b6100d26101e4565b60405160ff909116815260200160405180910390f35b34156100f357600080fd5b610107600160a060020a03600435166101ee565b005b341561011457600080fd5b6100d261026f565b60405160ff909116815260200160405180910390f35b341561013d57600080fd5b610107610278565b005b341561015257600080fd5b6100d261029f565b60405160ff909116815260200160405180910390f35b341561017b57600080fd5b610107610315565b005b341561019057600080fd5b610198610373565b604051901515815260200160405180910390f35b6000600460008154811015156101be57fe5b906000526020600020900160005b9054906101000a9004600160a060020a031690505b90565b60035460ff165b90565b60045460035460ff16101561026b5760035460048054839260ff1690811061021257fe5b906000526020600020900160005b8154600160a060020a039384166101009290920a91820293909102191691909117905560035460ff16151561025457426001555b6003805460ff8082166001011660ff199091161790555b5b50565b60035460ff1681565b60005433600160a060020a0390811691161461029357600080fd5b61029b61037e565b5b5b565b6000805b60045460ff8216101561030c5733600160a060020a031660048260ff168154811015156102cc57fe5b906000526020600020900160005b9054906101000a9004600160a060020a0316600160a060020a0316141561030357809150610311565b5b6001016102a3565b600591505b5090565b6002546001540142111561029b5761032b61037e565b7f71b8d288b6b795cd40378095d6a9c6466eb4a081c0238dfd691b0b1f5868f1806103546101ac565b604051600160a060020a03909116815260200160405180910390a15b5b565b60035460ff16155b90565b60015b60035460ff1681101561040757600480548290811061039c57fe5b906000526020600020900160005b9054906101000a9004600160a060020a03166004600183038154811015156103ce57fe5b906000526020600020900160005b6101000a815481600160a060020a030219169083600160a060020a031602179055505b600101610381565b426001556003546004805460009260001960ff918216011690811061042857fe5b906000526020600020900160005b81546101009190910a600160a060020a038181021990921693909116029190911790556003805460ff19811660ff918216600019019091161790555b505600a165627a7a723058207d3dfe52071a4ab19a37540a832aa2d9061776f308842cac0b4df4046d2f56ef0029",
  "source": "pragma solidity ^0.4.15;\n\nimport './Queue.sol';\nimport './Token.sol';\nimport './utils/SafeMath.sol';\n\n/**\n * @title Crowdsale\n * @dev Contract that deploys `Token.sol`\n * Is timelocked, manages buyer queue, updates balances on `Token.sol`\n */\n\n contract Crowdsale {\n \t// YOUR CODE HERE\n \tusing SafeMath for uint;\n \tusing SafeMath for uint256;\n\n \tToken public token;\n  Queue public queue;\n\n \taddress public owner;\n\n \t/**Unix time for start-time */\n \tuint public startAt;\n \tuint public endAt;\n  uint public preSaleEnd;\n\n \t/**Total amount of token to be sold, owner can increase this para or burn token. */\n \tuint public tokenSold;\n \tuint public weiRaised = 0;\n\n \tuint public weiToToken;\n  uint public preSaleRate;\n\n  mapping(address => uint) balances;\n  mapping(address => bool) whiteList;\n  mapping(address => bool) blackList;\n\n\n \tevent Refund(address buyer, uint amount);\n \tevent Purchase(address buyer, uint amount);\n\n   modifier isOwner() {\n     require(msg.sender == owner);\n     _;\n   }\n   modifier saleActive() {\n     require(now >= startAt && now <= endAt);\n     _;\n   }\n  /** */\n \tfunction Crowdsale(uint duration, uint preSaleduration, uint _amountToken, uint _weiToToken, uint _preSaleRate, uint _queueTime, address[5] _whitelist, address[5] _blacklist) public {\n\n      token = new Token(_amountToken);\n      queue = new Queue(_queueTime);\n\n \t\t  owner = msg.sender;\n \t\t  tokenSold = 0;\n\n \t\t  startAt = now;\n \t\t  endAt = startAt + duration * 1 days;\n      preSaleEnd = startAt + preSaleduration * 1 days;\n    \n      preSaleRate = _preSaleRate;\n      weiToToken = _weiToToken;\n      for (uint i = 0; i < _whitelist.length; i++) {\n          whiteList[_whitelist[0]] = true;\n    }\n      for (uint x = 0; x < _blacklist.length; x++) {\n          blackList[_blacklist[x]] = true;\n    }\n \t}\n\n   function mint(uint256 _tokens) isOwner() public {\n       token.addSupply(_tokens);\n   }\n\n   function burn(uint256 _tokens) isOwner() public {\n\t\t   token.burnToken(_tokens);\n   }\n\n   function buy() saleActive() payable public returns(bool) {\n       if (queue.getFirst() == msg.sender && !(blackList[msg.sender])) {\n           queue.dequeue();\n\n           uint tokenCount = msg.value.div(weiToToken);\n           uint refund = msg.value.sub(tokenCount.mul(weiToToken));\n           balances[msg.sender] = refund;\n\n           if (now < preSaleEnd && whiteList[msg.sender]) {\n             tokenCount = tokenCount.mul(preSaleRate);\n           }\n\n           token.transfer(msg.sender, tokenCount);\n           tokenSold += tokenCount;\n\t\t\t     return true;\n       }\n       return false;\n   }\n\n   function refund() saleActive() public {\n       uint tokenCount = token.balanceOf(msg.sender);\n       token.refundApprove(msg.sender, tokenCount);\n       token.transferFrom(msg.sender, address(this), tokenCount);\n\n       uint _refund = tokenCount.mul(weiToToken);\n       balances[msg.sender] = _refund;\n       tokenSold -= tokenCount;\n   }\n\n \tfunction withdrawRefund() saleActive() external returns(bool) {\n \t\t  if (balances[msg.sender] == 0) {\n \t\t\t  return false;\n \t    }\n \t\t  uint transferAmount = balances[msg.sender];\n \t    balances[msg.sender] = 0;\n \t    msg.sender.transfer(transferAmount);\n \t\t  return true;\n \t  }\n\n }",
  "sourcePath": "/Users/shreysamdani/GoogleDrive/fall 2017/BlockchainDevDecal/midterm 1/contracts/Crowdsale.sol",
  "schemaVersion": "1.0.0",
  "updatedAt": "2017-10-30T05:25:26.537Z",
  "contract_name": "Crowdsale",
  "unlinked_binary": "0x60606040526000600755341561001457600080fd5b604051610200806118cb8339810160405280805191906020018051919060200180519190602001805191906020018051919060200180519150602081019060c0015b600080876100626101cf565b908152602001604051809103906000f080151561007e57600080fd5b60008054600160a060020a031916600160a060020a0392909216919091179055846100a76101df565b908152602001604051809103906000f08015156100c357600080fd5b60018054600160a060020a0319908116600160a060020a0393841617909155600280549091163390921691909117905560006006819055426003819055620151808c810282016004558b02016005556009879055600888905591505b600582101561016a576001600b600086815b6020020151600160a060020a031681526020810191909152604001600020805460ff19169115159190911790555b60019091019061011f565b5060005b60058110156101bf576001600c600085846005811061018957fe5b6020020151600160a060020a031681526020810191909152604001600020805460ff19169115159190911790555b60010161016e565b5b505050505050505050506101ef565b60405161077780610b8183390190565b6040516105d3806112f883390190565b610983806101fe6000396000f300606060405236156100bf5763ffffffff60e060020a600035041663110f887481146100c45780632ac097e9146100eb5780634042b66f1461011057806342966c6814610135578063519ee19e1461014d578063590e1ae3146101725780636bc64e0f146101875780637cc3ae8c146101ac5780638da5cb5b146101d1578063a0712d6814610200578063a6f2ae3a14610218578063c744656514610234578063d833dbe914610259578063e10d29ee1461027e578063fc0c546a146102ad575b600080fd5b34156100cf57600080fd5b6100d76102dc565b604051901515815260200160405180910390f35b34156100f657600080fd5b6100fe610379565b60405190815260200160405180910390f35b341561011b57600080fd5b6100fe61037f565b60405190815260200160405180910390f35b341561014057600080fd5b61014b600435610385565b005b341561015857600080fd5b6100fe610401565b60405190815260200160405180910390f35b341561017d57600080fd5b61014b610407565b005b341561019257600080fd5b6100fe6105eb565b60405190815260200160405180910390f35b34156101b757600080fd5b6100fe6105f1565b60405190815260200160405180910390f35b34156101dc57600080fd5b6101e46105f7565b604051600160a060020a03909116815260200160405180910390f35b341561020b57600080fd5b61014b600435610606565b005b6100d7610682565b604051901515815260200160405180910390f35b341561023f57600080fd5b6100fe6108cb565b60405190815260200160405180910390f35b341561026457600080fd5b6100fe6108d1565b60405190815260200160405180910390f35b341561028957600080fd5b6101e46108d7565b604051600160a060020a03909116815260200160405180910390f35b34156102b857600080fd5b6101e46108e6565b604051600160a060020a03909116815260200160405180910390f35b60008060035442101580156102f357506004544211155b15156102fe57600080fd5b600160a060020a0333166000908152600a602052604090205415156103265760009150610374565b50600160a060020a0333166000818152600a6020526040808220805492905590919082156108fc0290839051600060405180830381858888f19350505050151561036f57600080fd5b600191505b5b5090565b60085481565b60075481565b60025433600160a060020a039081169116146103a057600080fd5b600054600160a060020a0316637b47ec1a8260405160e060020a63ffffffff84160281526004810191909152602401600060405180830381600087803b15156103e857600080fd5b6102c65a03f115156103f957600080fd5b5050505b5b50565b60065481565b600080600354421015801561041e57506004544211155b151561042957600080fd5b60008054600160a060020a0316906370a082319033906040516020015260405160e060020a63ffffffff8416028152600160a060020a039091166004820152602401602060405180830381600087803b151561048457600080fd5b6102c65a03f1151561049557600080fd5b505050604051805160008054919450600160a060020a039091169150632b2c91b990339085906040516020015260405160e060020a63ffffffff8516028152600160a060020a0390921660048301526024820152604401602060405180830381600087803b151561050557600080fd5b6102c65a03f1151561051657600080fd5b5050506040518051505060008054600160a060020a0316906323b872dd903390309086906040516020015260405160e060020a63ffffffff8616028152600160a060020a0393841660048201529190921660248201526044810191909152606401602060405180830381600087803b151561059057600080fd5b6102c65a03f115156105a157600080fd5b505050604051805150506008546105bf90839063ffffffff6108f516565b600160a060020a0333166000908152600a6020526040902081905560068054849003905590505b5b5050565b60055481565b60045481565b600254600160a060020a031681565b60025433600160a060020a0390811691161461062157600080fd5b600054600160a060020a03166340753a768260405160e060020a63ffffffff84160281526004810191909152602401600060405180830381600087803b15156103e857600080fd5b6102c65a03f115156103f957600080fd5b5050505b5b50565b6000806000600354421015801561069b57506004544211155b15156106a657600080fd5b600154600160a060020a033381169116631e2231436000604051602001526040518163ffffffff1660e060020a028152600401602060405180830381600087803b15156106f257600080fd5b6102c65a03f1151561070357600080fd5b50505060405180519050600160a060020a031614801561073c5750600160a060020a0333166000908152600c602052604090205460ff16155b156108c057600154600160a060020a031663957908d16040518163ffffffff1660e060020a028152600401600060405180830381600087803b151561078057600080fd5b6102c65a03f1151561079157600080fd5b50506008546107a89150349063ffffffff61092416565b91506107cf6107c2600854846108f590919063ffffffff16565b349063ffffffff61094016565b600160a060020a0333166000908152600a60205260409020819055600554909150421080156108165750600160a060020a0333166000908152600b602052604090205460ff165b156108325760095461082f90839063ffffffff6108f516565b91505b60008054600160a060020a03169063a9059cbb90339085906040516020015260405160e060020a63ffffffff8516028152600160a060020a0390921660048301526024820152604401602060405180830381600087803b151561089457600080fd5b6102c65a03f115156108a557600080fd5b505050604051805150506006805483019055600192506108c5565b600092505b5b505090565b60035481565b60095481565b600154600160a060020a031681565b600054600160a060020a031681565b6000828202831580610911575082848281151561090e57fe5b04145b151561091957fe5b8091505b5092915050565b600080828481151561093257fe5b0490508091505b5092915050565b60008282111561094c57fe5b508082035b929150505600a165627a7a723058209263f455cb820e59cb31591aa11425410eae824c316391c201512f1992803ffe00296060604052341561000f57600080fd5b604051602080610777833981016040528080519150505b60018054600160a060020a03191633600160a060020a03908116919091179182905516600090815260036020526040902081905560028190555b505b610706806100716000396000f300606060405236156100965763ffffffff7c0100000000000000000000000000000000000000000000000000000000600035041663095ea7b3811461009b57806318160ddd146100d157806323b872dd146100f65780632b2c91b91461013257806340753a761461016857806370a08231146101805780637b47ec1a146101b1578063a9059cbb146101c9578063dd62ed3e146101ff575b600080fd5b34156100a657600080fd5b6100bd600160a060020a0360043516602435610236565b604051901515815260200160405180910390f35b34156100dc57600080fd5b6100e46102a3565b60405190815260200160405180910390f35b341561010157600080fd5b6100bd600160a060020a03600435811690602435166044356102a9565b604051901515815260200160405180910390f35b341561013d57600080fd5b6100bd600160a060020a03600435166024356103f4565b604051901515815260200160405180910390f35b341561017357600080fd5b61017e60043561047e565b005b341561018b57600080fd5b6100e4600160a060020a03600435166104e8565b60405190815260200160405180910390f35b34156101bc57600080fd5b61017e600435610507565b005b34156101d457600080fd5b6100bd600160a060020a0360043516602435610593565b604051901515815260200160405180910390f35b341561020a57600080fd5b6100e4600160a060020a036004358116906024351661067c565b60405190815260200160405180910390f35b600160a060020a03338116600081815260046020908152604080832094871680845294909152808220859055909291907f8c5be1e5ebec7d5bd14f71427d1e84f3dd0314c0f7b2291e5b200ac8c7c3b9259085905190815260200160405180910390a35060015b92915050565b60025481565b600160a060020a038084166000818152600460209081526040808320339095168352938152838220549282526003905291822054839010806102ea57508281105b156102f857600091506103ec565b600160a060020a038516600090815260036020526040902054610321908463ffffffff6106a916565b600160a060020a03861660009081526003602052604090205561034a818463ffffffff6106a916565b600160a060020a0380871660009081526004602090815260408083203385168452825280832094909455918716815260039091522054610390908463ffffffff6106c016565b600160a060020a03808616600081815260036020526040908190209390935591908716907fddf252ad1be2c89b69c2b068fc378daa952ba7f163c4a11628f55a4df523b3ef9086905190815260200160405180910390a3600191505b509392505050565b60015460009033600160a060020a0390811691161461041257600080fd5b600160a060020a0380841660008181526004602090815260408083203390951680845294909152908190208590557f8c5be1e5ebec7d5bd14f71427d1e84f3dd0314c0f7b2291e5b200ac8c7c3b9259085905190815260200160405180910390a35060015b5b92915050565b60015433600160a060020a0390811691161461049957600080fd5b6002805482019055600160a060020a0333166000908152600360205260409020546104ca908263ffffffff6106c016565b600160a060020a0333166000908152600360205260409020555b5b50565b600160a060020a0381166000908152600360205260409020545b919050565b60015433600160a060020a0390811691161461052257600080fd5b600160a060020a0333166000908152600360205260409020548190106104e457600280548290039055600160a060020a0333166000908152600360205260409020546104ca908263ffffffff6106a916565b600160a060020a0333166000908152600360205260409020555b5b5b50565b600160a060020a033316600090815260036020526040812054829010156105bc5750600061029d565b600160a060020a0333166000908152600360205260409020546105e5908363ffffffff6106a916565b600160a060020a03338116600090815260036020526040808220939093559085168152205461061a908363ffffffff6106c016565b600160a060020a0380851660008181526003602052604090819020939093559133909116907fddf252ad1be2c89b69c2b068fc378daa952ba7f163c4a11628f55a4df523b3ef9085905190815260200160405180910390a35060015b92915050565b600160a060020a038083166000908152600460209081526040808320938516835292905220545b92915050565b6000828211156106b557fe5b508082035b92915050565b6000828201838110156106cf57fe5b8091505b50929150505600a165627a7a72305820760adaaf1f161f1a9718e171bf2c833690a3fb578545f34487fa35d7d37dc0a900296060604052341561000f57600080fd5b6040516020806105d3833981016040528080519150505b42600155600281905560008054600160a060020a03191633600160a060020a031617905560056040518059106100595750595b908082528060200260200182016040525b50600490805161007e929160200190610090565b506003805460ff191690555b50610123565b8280548282559060005260206000209081019282156100e7579160200282015b828111156100e75782518254600160a060020a031916600160a060020a0391909116178255602092909201916001909101906100b0565b5b506100f49291506100f8565b5090565b61012091905b808211156100f4578054600160a060020a03191681556001016100fe565b5090565b90565b6104a1806101326000396000f3006060604052361561008b5763ffffffff7c01000000000000000000000000000000000000000000000000000000006000350416631e22314381146100905780633e3c9eae146100bf5780638f807f6b146100e8578063949d225d14610109578063957908d114610132578063ad7d59fc14610147578063e0c6190d14610170578063f2a75fe414610185575b600080fd5b341561009b57600080fd5b6100a36101ac565b604051600160a060020a03909116815260200160405180910390f35b34156100ca57600080fd5b6100d26101e4565b60405160ff909116815260200160405180910390f35b34156100f357600080fd5b610107600160a060020a03600435166101ee565b005b341561011457600080fd5b6100d261026f565b60405160ff909116815260200160405180910390f35b341561013d57600080fd5b610107610278565b005b341561015257600080fd5b6100d261029f565b60405160ff909116815260200160405180910390f35b341561017b57600080fd5b610107610315565b005b341561019057600080fd5b610198610373565b604051901515815260200160405180910390f35b6000600460008154811015156101be57fe5b906000526020600020900160005b9054906101000a9004600160a060020a031690505b90565b60035460ff165b90565b60045460035460ff16101561026b5760035460048054839260ff1690811061021257fe5b906000526020600020900160005b8154600160a060020a039384166101009290920a91820293909102191691909117905560035460ff16151561025457426001555b6003805460ff8082166001011660ff199091161790555b5b50565b60035460ff1681565b60005433600160a060020a0390811691161461029357600080fd5b61029b61037e565b5b5b565b6000805b60045460ff8216101561030c5733600160a060020a031660048260ff168154811015156102cc57fe5b906000526020600020900160005b9054906101000a9004600160a060020a0316600160a060020a0316141561030357809150610311565b5b6001016102a3565b600591505b5090565b6002546001540142111561029b5761032b61037e565b7f71b8d288b6b795cd40378095d6a9c6466eb4a081c0238dfd691b0b1f5868f1806103546101ac565b604051600160a060020a03909116815260200160405180910390a15b5b565b60035460ff16155b90565b60015b60035460ff1681101561040757600480548290811061039c57fe5b906000526020600020900160005b9054906101000a9004600160a060020a03166004600183038154811015156103ce57fe5b906000526020600020900160005b6101000a815481600160a060020a030219169083600160a060020a031602179055505b600101610381565b426001556003546004805460009260001960ff918216011690811061042857fe5b906000526020600020900160005b81546101009190910a600160a060020a038181021990921693909116029190911790556003805460ff19811660ff918216600019019091161790555b505600a165627a7a723058207d3dfe52071a4ab19a37540a832aa2d9061776f308842cac0b4df4046d2f56ef0029",
  "schema_version": "0.0.5",
  "updated_at": 1509343274239
}