{
  "contractName": "Queue",
  "abi": [
    {
      "constant": true,
      "inputs": [],
      "name": "getFirst",
      "outputs": [
        {
          "name": "",
          "type": "address"
        }
      ],
      "payable": false,
      "type": "function"
    },
    {
      "constant": true,
      "inputs": [],
      "name": "qsize",
      "outputs": [
        {
          "name": "",
          "type": "uint8"
        }
      ],
      "payable": false,
      "type": "function"
    },
    {
      "constant": false,
      "inputs": [
        {
          "name": "addr",
          "type": "address"
        }
      ],
      "name": "enqueue",
      "outputs": [],
      "payable": false,
      "type": "function"
    },
    {
      "constant": true,
      "inputs": [],
      "name": "size",
      "outputs": [
        {
          "name": "",
          "type": "uint8"
        }
      ],
      "payable": false,
      "type": "function"
    },
    {
      "constant": false,
      "inputs": [],
      "name": "dequeue",
      "outputs": [],
      "payable": false,
      "type": "function"
    },
    {
      "constant": true,
      "inputs": [],
      "name": "checkPlace",
      "outputs": [
        {
          "name": "",
          "type": "uint8"
        }
      ],
      "payable": false,
      "type": "function"
    },
    {
      "constant": false,
      "inputs": [],
      "name": "checkTime",
      "outputs": [],
      "payable": false,
      "type": "function"
    },
    {
      "constant": true,
      "inputs": [],
      "name": "empty",
      "outputs": [
        {
          "name": "",
          "type": "bool"
        }
      ],
      "payable": false,
      "type": "function"
    },
    {
      "inputs": [
        {
          "name": "_timelimit",
          "type": "uint256"
        }
      ],
      "payable": false,
      "type": "constructor"
    },
    {
      "anonymous": false,
      "inputs": [
        {
          "indexed": false,
          "name": "crowder",
          "type": "address"
        }
      ],
      "name": "Timeout",
      "type": "event"
    }
  ],
  "bytecode": "0x6060604052341561000f57600080fd5b6040516020806105d3833981016040528080519150505b42600155600281905560008054600160a060020a03191633600160a060020a031617905560056040518059106100595750595b908082528060200260200182016040525b50600490805161007e929160200190610090565b506003805460ff191690555b50610123565b8280548282559060005260206000209081019282156100e7579160200282015b828111156100e75782518254600160a060020a031916600160a060020a0391909116178255602092909201916001909101906100b0565b5b506100f49291506100f8565b5090565b61012091905b808211156100f4578054600160a060020a03191681556001016100fe565b5090565b90565b6104a1806101326000396000f3006060604052361561008b5763ffffffff7c01000000000000000000000000000000000000000000000000000000006000350416631e22314381146100905780633e3c9eae146100bf5780638f807f6b146100e8578063949d225d14610109578063957908d114610132578063ad7d59fc14610147578063e0c6190d14610170578063f2a75fe414610185575b600080fd5b341561009b57600080fd5b6100a36101ac565b604051600160a060020a03909116815260200160405180910390f35b34156100ca57600080fd5b6100d26101e4565b60405160ff909116815260200160405180910390f35b34156100f357600080fd5b610107600160a060020a03600435166101ee565b005b341561011457600080fd5b6100d261026f565b60405160ff909116815260200160405180910390f35b341561013d57600080fd5b610107610278565b005b341561015257600080fd5b6100d261029f565b60405160ff909116815260200160405180910390f35b341561017b57600080fd5b610107610315565b005b341561019057600080fd5b610198610373565b604051901515815260200160405180910390f35b6000600460008154811015156101be57fe5b906000526020600020900160005b9054906101000a9004600160a060020a031690505b90565b60035460ff165b90565b60045460035460ff16101561026b5760035460048054839260ff1690811061021257fe5b906000526020600020900160005b8154600160a060020a039384166101009290920a91820293909102191691909117905560035460ff16151561025457426001555b6003805460ff8082166001011660ff199091161790555b5b50565b60035460ff1681565b60005433600160a060020a0390811691161461029357600080fd5b61029b61037e565b5b5b565b6000805b60045460ff8216101561030c5733600160a060020a031660048260ff168154811015156102cc57fe5b906000526020600020900160005b9054906101000a9004600160a060020a0316600160a060020a0316141561030357809150610311565b5b6001016102a3565b600591505b5090565b6002546001540142111561029b5761032b61037e565b7f71b8d288b6b795cd40378095d6a9c6466eb4a081c0238dfd691b0b1f5868f1806103546101ac565b604051600160a060020a03909116815260200160405180910390a15b5b565b60035460ff16155b90565b60015b60035460ff1681101561040757600480548290811061039c57fe5b906000526020600020900160005b9054906101000a9004600160a060020a03166004600183038154811015156103ce57fe5b906000526020600020900160005b6101000a815481600160a060020a030219169083600160a060020a031602179055505b600101610381565b426001556003546004805460009260001960ff918216011690811061042857fe5b906000526020600020900160005b81546101009190910a600160a060020a038181021990921693909116029190911790556003805460ff19811660ff918216600019019091161790555b505600a165627a7a723058207d3dfe52071a4ab19a37540a832aa2d9061776f308842cac0b4df4046d2f56ef0029",
  "source": "pragma solidity ^0.4.15;\n\n/**\n * @title Queue\n * @dev Data structure contract used in `Crowdsale.sol`\n * Allows buyers to line up on a first-in-first-out basis\n * See this example: http://interactivepython.org/courselib/static/pythonds/BasicDS/ImplementingaQueueinPython.html\n */\n\n contract Queue {\n \t/* State variables */\n\n   address admin;\n\n   uint startTime;\n   uint timelimit;\n\n \t uint8 public size;\n\n   address[] Q;\n\n   modifier isAdmin() {\n     \trequire(msg.sender == admin);\n   \t\t_;\n   }\n\n \t/* Add events */\n \t// YOUR CODE HERE\n   event Timeout(address crowder);\n\n \t/* Add constructor */\n   function Queue(uint _timelimit) public {\n     \tstartTime = now;\n     \ttimelimit = _timelimit * 1 seconds;\n\n     \tadmin = msg.sender;\n     \tQ = new address[](5);\n     \tsize = 0;\n   }\n\n\n\n \t/* Returns the number of people waiting in line */\n \tfunction qsize() constant public returns(uint8) {\n       return size;\n \t}\n\n \t/* Returns whether the queue is empty or not */\n \tfunction empty() constant public returns(bool) {\n \t\t// YOUR CODE HERE\n       return (size == 0);\n \t}\n\n \t/* Returns the address of the person in the front of the queue */\n \tfunction getFirst() constant public returns(address) {\n \t\t// YOUR CODE HERE\n     \treturn Q[0];\n \t}\n\n \t/* Allows `msg.sender` to check their position in the queue */\n \tfunction checkPlace() constant public returns(uint8) {\n \t\t// YOUR CODE HERE\n     for (uint8 i = 0; i < Q.length; i++) {\n     \tif (Q[i] == msg.sender) {\n       \treturn i;\n       }\n     }\n     return 5;\n \t}\n\n \t/* Allows anyone to expel the first person in line if their time\n \t * limit is up\n \t */\n \tfunction checkTime() public {\n \t\tif (now > startTime + timelimit) {\n             //startTime = now;\n             DQ();\n             Timeout(getFirst());\n         }\n \t}\n\n \t/* Removes the first person in line; either when their time is up or when\n \t * they are done with their purchase\n \t */\n \tfunction dequeue()\n     isAdmin()\n     public {\n         DQ();\n \t}\n\n   function DQ() private {\n     for (uint i = 1; i < size; i++) {\n       Q[i-1] = Q[i];\n     }\n\t\t startTime = now;\n     Q[size - 1] = address(0);\n     size--;\n   }\n\n\n \t/* Places `addr` in the first empty position in the queue */\n \tfunction enqueue(address addr) public {\n    if (size < Q.length) {\n      Q[size] = addr;\n\t\t\tif(size == 0) {\n\t\t\t\tstartTime = now;\n\t\t\t}\n\t\t\tsize++;\n\n    }\n \t}\n}",
  "sourcePath": "/Users/shreysamdani/GoogleDrive/fall 2017/BlockchainDevDecal/midterm 1/contracts/Queue.sol",
  "schemaVersion": "1.0.0",
  "updatedAt": "2017-10-30T05:25:09.111Z",
  "contract_name": "Queue",
  "unlinked_binary": "0x6060604052341561000f57600080fd5b6040516020806105d3833981016040528080519150505b42600155600281905560008054600160a060020a03191633600160a060020a031617905560056040518059106100595750595b908082528060200260200182016040525b50600490805161007e929160200190610090565b506003805460ff191690555b50610123565b8280548282559060005260206000209081019282156100e7579160200282015b828111156100e75782518254600160a060020a031916600160a060020a0391909116178255602092909201916001909101906100b0565b5b506100f49291506100f8565b5090565b61012091905b808211156100f4578054600160a060020a03191681556001016100fe565b5090565b90565b6104a1806101326000396000f3006060604052361561008b5763ffffffff7c01000000000000000000000000000000000000000000000000000000006000350416631e22314381146100905780633e3c9eae146100bf5780638f807f6b146100e8578063949d225d14610109578063957908d114610132578063ad7d59fc14610147578063e0c6190d14610170578063f2a75fe414610185575b600080fd5b341561009b57600080fd5b6100a36101ac565b604051600160a060020a03909116815260200160405180910390f35b34156100ca57600080fd5b6100d26101e4565b60405160ff909116815260200160405180910390f35b34156100f357600080fd5b610107600160a060020a03600435166101ee565b005b341561011457600080fd5b6100d261026f565b60405160ff909116815260200160405180910390f35b341561013d57600080fd5b610107610278565b005b341561015257600080fd5b6100d261029f565b60405160ff909116815260200160405180910390f35b341561017b57600080fd5b610107610315565b005b341561019057600080fd5b610198610373565b604051901515815260200160405180910390f35b6000600460008154811015156101be57fe5b906000526020600020900160005b9054906101000a9004600160a060020a031690505b90565b60035460ff165b90565b60045460035460ff16101561026b5760035460048054839260ff1690811061021257fe5b906000526020600020900160005b8154600160a060020a039384166101009290920a91820293909102191691909117905560035460ff16151561025457426001555b6003805460ff8082166001011660ff199091161790555b5b50565b60035460ff1681565b60005433600160a060020a0390811691161461029357600080fd5b61029b61037e565b5b5b565b6000805b60045460ff8216101561030c5733600160a060020a031660048260ff168154811015156102cc57fe5b906000526020600020900160005b9054906101000a9004600160a060020a0316600160a060020a0316141561030357809150610311565b5b6001016102a3565b600591505b5090565b6002546001540142111561029b5761032b61037e565b7f71b8d288b6b795cd40378095d6a9c6466eb4a081c0238dfd691b0b1f5868f1806103546101ac565b604051600160a060020a03909116815260200160405180910390a15b5b565b60035460ff16155b90565b60015b60035460ff1681101561040757600480548290811061039c57fe5b906000526020600020900160005b9054906101000a9004600160a060020a03166004600183038154811015156103ce57fe5b906000526020600020900160005b6101000a815481600160a060020a030219169083600160a060020a031602179055505b600101610381565b426001556003546004805460009260001960ff918216011690811061042857fe5b906000526020600020900160005b81546101009190910a600160a060020a038181021990921693909116029190911790556003805460ff19811660ff918216600019019091161790555b505600a165627a7a723058207d3dfe52071a4ab19a37540a832aa2d9061776f308842cac0b4df4046d2f56ef0029",
  "schema_version": "0.0.5",
  "updated_at": 1509343273817
}