{
  "contractName": "Token",
  "abi": [
    {
      "constant": false,
      "inputs": [
        {
          "name": "_spender",
          "type": "address"
        },
        {
          "name": "_value",
          "type": "uint256"
        }
      ],
      "name": "approve",
      "outputs": [
        {
          "name": "success",
          "type": "bool"
        }
      ],
      "payable": false,
      "type": "function"
    },
    {
      "constant": true,
      "inputs": [],
      "name": "totalSupply",
      "outputs": [
        {
          "name": "",
          "type": "uint256"
        }
      ],
      "payable": false,
      "type": "function"
    },
    {
      "constant": false,
      "inputs": [
        {
          "name": "_from",
          "type": "address"
        },
        {
          "name": "_to",
          "type": "address"
        },
        {
          "name": "_value",
          "type": "uint256"
        }
      ],
      "name": "transferFrom",
      "outputs": [
        {
          "name": "success",
          "type": "bool"
        }
      ],
      "payable": false,
      "type": "function"
    },
    {
      "constant": false,
      "inputs": [
        {
          "name": "_refundee",
          "type": "address"
        },
        {
          "name": "_value",
          "type": "uint256"
        }
      ],
      "name": "refundApprove",
      "outputs": [
        {
          "name": "success",
          "type": "bool"
        }
      ],
      "payable": false,
      "type": "function"
    },
    {
      "constant": false,
      "inputs": [
        {
          "name": "_amount",
          "type": "uint256"
        }
      ],
      "name": "addSupply",
      "outputs": [],
      "payable": false,
      "type": "function"
    },
    {
      "constant": true,
      "inputs": [
        {
          "name": "_owner",
          "type": "address"
        }
      ],
      "name": "balanceOf",
      "outputs": [
        {
          "name": "balance",
          "type": "uint256"
        }
      ],
      "payable": false,
      "type": "function"
    },
    {
      "constant": false,
      "inputs": [
        {
          "name": "_amount",
          "type": "uint256"
        }
      ],
      "name": "burnToken",
      "outputs": [],
      "payable": false,
      "type": "function"
    },
    {
      "constant": false,
      "inputs": [
        {
          "name": "_to",
          "type": "address"
        },
        {
          "name": "_value",
          "type": "uint256"
        }
      ],
      "name": "transfer",
      "outputs": [
        {
          "name": "success",
          "type": "bool"
        }
      ],
      "payable": false,
      "type": "function"
    },
    {
      "constant": true,
      "inputs": [
        {
          "name": "_owner",
          "type": "address"
        },
        {
          "name": "_spender",
          "type": "address"
        }
      ],
      "name": "allowance",
      "outputs": [
        {
          "name": "remaining",
          "type": "uint256"
        }
      ],
      "payable": false,
      "type": "function"
    },
    {
      "inputs": [
        {
          "name": "_totalSupply",
          "type": "uint256"
        }
      ],
      "payable": false,
      "type": "constructor"
    },
    {
      "anonymous": false,
      "inputs": [
        {
          "indexed": true,
          "name": "_from",
          "type": "address"
        },
        {
          "indexed": true,
          "name": "_to",
          "type": "address"
        },
        {
          "indexed": false,
          "name": "_value",
          "type": "uint256"
        }
      ],
      "name": "Transfer",
      "type": "event"
    },
    {
      "anonymous": false,
      "inputs": [
        {
          "indexed": true,
          "name": "_owner",
          "type": "address"
        },
        {
          "indexed": true,
          "name": "_spender",
          "type": "address"
        },
        {
          "indexed": false,
          "name": "_value",
          "type": "uint256"
        }
      ],
      "name": "Approval",
      "type": "event"
    }
  ],
  "bytecode": "0x6060604052341561000f57600080fd5b604051602080610777833981016040528080519150505b60018054600160a060020a03191633600160a060020a03908116919091179182905516600090815260036020526040902081905560028190555b505b610706806100716000396000f300606060405236156100965763ffffffff7c0100000000000000000000000000000000000000000000000000000000600035041663095ea7b3811461009b57806318160ddd146100d157806323b872dd146100f65780632b2c91b91461013257806340753a761461016857806370a08231146101805780637b47ec1a146101b1578063a9059cbb146101c9578063dd62ed3e146101ff575b600080fd5b34156100a657600080fd5b6100bd600160a060020a0360043516602435610236565b604051901515815260200160405180910390f35b34156100dc57600080fd5b6100e46102a3565b60405190815260200160405180910390f35b341561010157600080fd5b6100bd600160a060020a03600435811690602435166044356102a9565b604051901515815260200160405180910390f35b341561013d57600080fd5b6100bd600160a060020a03600435166024356103f4565b604051901515815260200160405180910390f35b341561017357600080fd5b61017e60043561047e565b005b341561018b57600080fd5b6100e4600160a060020a03600435166104e8565b60405190815260200160405180910390f35b34156101bc57600080fd5b61017e600435610507565b005b34156101d457600080fd5b6100bd600160a060020a0360043516602435610593565b604051901515815260200160405180910390f35b341561020a57600080fd5b6100e4600160a060020a036004358116906024351661067c565b60405190815260200160405180910390f35b600160a060020a03338116600081815260046020908152604080832094871680845294909152808220859055909291907f8c5be1e5ebec7d5bd14f71427d1e84f3dd0314c0f7b2291e5b200ac8c7c3b9259085905190815260200160405180910390a35060015b92915050565b60025481565b600160a060020a038084166000818152600460209081526040808320339095168352938152838220549282526003905291822054839010806102ea57508281105b156102f857600091506103ec565b600160a060020a038516600090815260036020526040902054610321908463ffffffff6106a916565b600160a060020a03861660009081526003602052604090205561034a818463ffffffff6106a916565b600160a060020a0380871660009081526004602090815260408083203385168452825280832094909455918716815260039091522054610390908463ffffffff6106c016565b600160a060020a03808616600081815260036020526040908190209390935591908716907fddf252ad1be2c89b69c2b068fc378daa952ba7f163c4a11628f55a4df523b3ef9086905190815260200160405180910390a3600191505b509392505050565b60015460009033600160a060020a0390811691161461041257600080fd5b600160a060020a0380841660008181526004602090815260408083203390951680845294909152908190208590557f8c5be1e5ebec7d5bd14f71427d1e84f3dd0314c0f7b2291e5b200ac8c7c3b9259085905190815260200160405180910390a35060015b5b92915050565b60015433600160a060020a0390811691161461049957600080fd5b6002805482019055600160a060020a0333166000908152600360205260409020546104ca908263ffffffff6106c016565b600160a060020a0333166000908152600360205260409020555b5b50565b600160a060020a0381166000908152600360205260409020545b919050565b60015433600160a060020a0390811691161461052257600080fd5b600160a060020a0333166000908152600360205260409020548190106104e457600280548290039055600160a060020a0333166000908152600360205260409020546104ca908263ffffffff6106a916565b600160a060020a0333166000908152600360205260409020555b5b5b50565b600160a060020a033316600090815260036020526040812054829010156105bc5750600061029d565b600160a060020a0333166000908152600360205260409020546105e5908363ffffffff6106a916565b600160a060020a03338116600090815260036020526040808220939093559085168152205461061a908363ffffffff6106c016565b600160a060020a0380851660008181526003602052604090819020939093559133909116907fddf252ad1be2c89b69c2b068fc378daa952ba7f163c4a11628f55a4df523b3ef9085905190815260200160405180910390a35060015b92915050565b600160a060020a038083166000908152600460209081526040808320938516835292905220545b92915050565b6000828211156106b557fe5b508082035b92915050565b6000828201838110156106cf57fe5b8091505b50929150505600a165627a7a72305820760adaaf1f161f1a9718e171bf2c833690a3fb578545f34487fa35d7d37dc0a90029",
  "source": "pragma solidity ^0.4.15;\n\nimport './interfaces/ERC20Interface.sol';\nimport './utils/SafeMath.sol';\n\n/**\n * @title Token\n * @dev Contract that implements ERC20 token standard\n * Is deployed by `Crowdsale.sol`, keeps track of balances, etc.\n */\n\n contract Token is ERC20Interface {\n\n   \taddress owner;\n\n   \tuint256 public totalSupply;\n\n   \tmapping(address => uint256) balances;\n   \tmapping(address => mapping(address => uint256)) approved;\n\n   \tusing SafeMath for uint256;\n\n   \tmodifier isOwner() {\n     \t\trequire(owner == msg.sender);\n       \t_;\n     }\n\n   \tfunction Token(uint256 _totalSupply) public {\n       \towner = msg.sender;\n       \tbalances[owner] = _totalSupply;\n     \t\ttotalSupply = _totalSupply;\n     }\n\n   \tfunction addSupply(uint256 _amount) isOwner() public {\n       \ttotalSupply += _amount;\n       \tbalances[msg.sender] = balances[msg.sender].add(_amount);\n     }\n\n     function burnToken(uint256 _amount) isOwner() public {\n       if (balances[msg.sender] >= _amount) {\n         totalSupply -= _amount;\n         balances[msg.sender] = balances[msg.sender].sub(_amount);\n       }\n     }\n\n \t\t/// @param _owner The address from which the balance will be retrieved\n     /// @return The balance\n     function balanceOf(address _owner) constant public returns (uint256 balance) {\n     \t\treturn balances[_owner];\n     }\n\n   \t/// @notice send `_value` token to `_to` from `msg.sender`\n     /// @param _to The address of the recipient\n     /// @param _value The amount of token to be transferred\n     /// @return Whether the transfer was successful or not\n     function transfer(address _to, uint256 _value) public returns (bool success) {\n       \tif (balances[msg.sender] < _value) {\n         \t\treturn false;\n         }\n        balances[msg.sender] = balances[msg.sender].sub(_value);\n       \tbalances[_to] = balances[_to].add(_value);\n       \tTransfer(msg.sender, _to, _value);\n       \treturn true;\n     }\n\n\n   \t/// @notice send `_value` token to `_to` from `_from` on the condition it is approved by `_from`\n     /// @param _from The address of the sender\n     /// @param _to The address of the recipient\n     /// @param _value The amount of token to be transferred\n     /// @return Whether the transfer was successful or not\n     function transferFrom(address _from, address _to, uint256 _value) public returns (bool success) {\n       \tuint256 allowed = approved[_from][msg.sender];\n\n       \tif (balances[_from] < _value || allowed < _value) {\n           \treturn false;\n         }\n       \tbalances[_from] = balances[_from].sub(_value);\n       \tapproved[_from][msg.sender] = allowed.sub(_value);\n  \t\t\t\tbalances[_to] = balances[_to].add(_value);\n       \tTransfer(_from, _to, _value);\n       \treturn true;\n     }\n\n     /// @notice `msg.sender` approves `_spender` to spend `_value` tokens\n     /// @param _spender The address of the account able to transfer the tokens\n     /// @param _value The amount of tokens to be approved for transfer\n     /// @return Whether the approval was successful or not\n     function approve(address _spender, uint256 _value) public returns (bool success) {\n       \tapproved[msg.sender][_spender] = _value;\n       \tApproval(msg.sender, _spender, _value);\n       \treturn true;\n     }\n\n   \tfunction refundApprove(address _refundee, uint256 _value) isOwner() public returns (bool success) {\n       \tapproved[_refundee][msg.sender] = _value;\n       \tApproval(_refundee, msg.sender, _value);\n       \treturn true;\n     }\n\n     /// @param _owner The address of the account owning tokens\n     /// @param _spender The address of the account able to transfer the tokens\n     /// @return Amount of remaining tokens allowed to spent\n     function allowance(address _owner, address _spender) constant public returns (uint256 remaining) {\n       \treturn approved[_owner][_spender];\n     }\n\n     event Transfer(address indexed _from, address indexed _to, uint256 _value);\n     event Approval(address indexed _owner, address indexed _spender, uint256 _value);\n }\n",
  "sourcePath": "/Users/shreysamdani/GoogleDrive/fall 2017/BlockchainDevDecal/midterm 1/contracts/Token.sol",
  "schemaVersion": "1.0.0",
  "updatedAt": "2017-10-30T05:25:09.115Z",
  "contract_name": "Token",
  "unlinked_binary": "0x6060604052341561000f57600080fd5b604051602080610777833981016040528080519150505b60018054600160a060020a03191633600160a060020a03908116919091179182905516600090815260036020526040902081905560028190555b505b610706806100716000396000f300606060405236156100965763ffffffff7c0100000000000000000000000000000000000000000000000000000000600035041663095ea7b3811461009b57806318160ddd146100d157806323b872dd146100f65780632b2c91b91461013257806340753a761461016857806370a08231146101805780637b47ec1a146101b1578063a9059cbb146101c9578063dd62ed3e146101ff575b600080fd5b34156100a657600080fd5b6100bd600160a060020a0360043516602435610236565b604051901515815260200160405180910390f35b34156100dc57600080fd5b6100e46102a3565b60405190815260200160405180910390f35b341561010157600080fd5b6100bd600160a060020a03600435811690602435166044356102a9565b604051901515815260200160405180910390f35b341561013d57600080fd5b6100bd600160a060020a03600435166024356103f4565b604051901515815260200160405180910390f35b341561017357600080fd5b61017e60043561047e565b005b341561018b57600080fd5b6100e4600160a060020a03600435166104e8565b60405190815260200160405180910390f35b34156101bc57600080fd5b61017e600435610507565b005b34156101d457600080fd5b6100bd600160a060020a0360043516602435610593565b604051901515815260200160405180910390f35b341561020a57600080fd5b6100e4600160a060020a036004358116906024351661067c565b60405190815260200160405180910390f35b600160a060020a03338116600081815260046020908152604080832094871680845294909152808220859055909291907f8c5be1e5ebec7d5bd14f71427d1e84f3dd0314c0f7b2291e5b200ac8c7c3b9259085905190815260200160405180910390a35060015b92915050565b60025481565b600160a060020a038084166000818152600460209081526040808320339095168352938152838220549282526003905291822054839010806102ea57508281105b156102f857600091506103ec565b600160a060020a038516600090815260036020526040902054610321908463ffffffff6106a916565b600160a060020a03861660009081526003602052604090205561034a818463ffffffff6106a916565b600160a060020a0380871660009081526004602090815260408083203385168452825280832094909455918716815260039091522054610390908463ffffffff6106c016565b600160a060020a03808616600081815260036020526040908190209390935591908716907fddf252ad1be2c89b69c2b068fc378daa952ba7f163c4a11628f55a4df523b3ef9086905190815260200160405180910390a3600191505b509392505050565b60015460009033600160a060020a0390811691161461041257600080fd5b600160a060020a0380841660008181526004602090815260408083203390951680845294909152908190208590557f8c5be1e5ebec7d5bd14f71427d1e84f3dd0314c0f7b2291e5b200ac8c7c3b9259085905190815260200160405180910390a35060015b5b92915050565b60015433600160a060020a0390811691161461049957600080fd5b6002805482019055600160a060020a0333166000908152600360205260409020546104ca908263ffffffff6106c016565b600160a060020a0333166000908152600360205260409020555b5b50565b600160a060020a0381166000908152600360205260409020545b919050565b60015433600160a060020a0390811691161461052257600080fd5b600160a060020a0333166000908152600360205260409020548190106104e457600280548290039055600160a060020a0333166000908152600360205260409020546104ca908263ffffffff6106a916565b600160a060020a0333166000908152600360205260409020555b5b5b50565b600160a060020a033316600090815260036020526040812054829010156105bc5750600061029d565b600160a060020a0333166000908152600360205260409020546105e5908363ffffffff6106a916565b600160a060020a03338116600090815260036020526040808220939093559085168152205461061a908363ffffffff6106c016565b600160a060020a0380851660008181526003602052604090819020939093559133909116907fddf252ad1be2c89b69c2b068fc378daa952ba7f163c4a11628f55a4df523b3ef9085905190815260200160405180910390a35060015b92915050565b600160a060020a038083166000908152600460209081526040808320938516835292905220545b92915050565b6000828211156106b557fe5b508082035b92915050565b6000828201838110156106cf57fe5b8091505b50929150505600a165627a7a72305820760adaaf1f161f1a9718e171bf2c833690a3fb578545f34487fa35d7d37dc0a90029",
  "schema_version": "0.0.5",
  "updated_at": 1509343273819
}